:020000001628C0
:0E0006008312031321088A00200882000800DC
:1000140003208A110A128000840AA00A0319A10A83
:08002400F003031D0A28080087
:10002C00831603178801890183128713881383169B
:10003C00031307100515831207100519432807141D
:10004C000630FB001330FC00AD30FD00FD0B2C28FE
:10005C00FC0B2C28FB0B2C28000000000710063092
:10006C00FB001330FC00AD30FD00FD0B3B28FC0BFE
:0E007C003B28FB0B3B280000000023284428F3
:04400E00F42F000784
:00000001FF
